:100000000C9407430C947B430C947B430C947B43EC
:100010000C947B430C947B430C947B430C947B4368
:100020000C947B430C947B430C947B430C947B4358
:100030000C947B430C94E4450C9424460C947B4331
:100040000C947B430C947B430C947B430C947B4338
:100050000C947B430C947B430C947B430C947B4328
:100060000C947B430C947B430C947B430C947B4318
:100070008100450027FF24FF2A902B1C210C22FB26
:10008000850084008903888D81096F0244424700FE
:100090004501B083B300B10125118A4F8B035A5536
:1000A00001200101003808000000000000000000ED
:1000B00000000000000000000000000000004549B2
:1000C0004849C549BE49B649514956495B49A649BF
:1000D0005E4961496449A049A349C94900408891E2
:1000E000D2E4ADB5B6BEBFFF251C05272805251DEA
:1000F00025312A3233342F051D1B1C2005292A2BBC
:100100002B05252A2C2D2E2C2A000102011617184A
:10011000191A161718191A0E0D0C0D0E10111213AC
:10012000141511121314150C0D0C0D0E10172F00B1
:10013000E300C5019E0281037704660568067B071C
:1001400090086C094B0A610B1D0C1C0D060E170F55
:10015000F80FDC10D111FD12E213E314020000804D
:100160008001010202010101010201080160002079
:1001700000C000400080002000BC345E1A0319BC9F
:10018000340409BC3404030B030802020203020313
:100190000202040B0507030000000000000000003D
:1001A000000000000000000000009EC8F980288ABE
:1001B00020208A020478A28C00A2281080280A023B
:1001C000E071BC0F00000000000000000000000013
:1001D000000000000000000000000000000000001F
:1001E000000000000000000000000000000000000F
:1001F00000000000000000000000000000000000FF
:1002000000000100547FFB90CA18A67590879A14CD
:10021000002C010000010102020101011102021281
:1002200002400040006000400020004000BC34BCA0
:1002300034BC34BC34BC34BC3402020204020202BA
:100240000202020202030303030303010000600031
:10025000000018000000C6010080010000600000DE
:100260000018070F0F06000080010000E0C1FF7FAB
:100270001800000007000080E10100600060001E1F
:10028000001F001F001F80818001E07F6000FE7F53
:10029000180E0F1C068001E6016080F1E11F603836
:1002A000000710068079FCE160003F001F0000009D
:1002B000FEFFFFFF200301007B20C30A006147749B
:1002C00082B12892288A42295A5716A5B1428E2413
:1002D000CB3AF8C7362E0C390B45D38D3941DC9714
:1002E0002DCD775ED7E617A76B9A331E6A5F03356D
:1002F00092E002C8000000010102020101080101B0
:100300000101018001200060004000200020001059
:10031000175E1ABC34BC34BC34BC3408030403027A
:1003200002030202020202070402050303010000A5
:10033000600000001800000006000080010000605E
:10034000000000183C3C000600008001000060F046
:10035000001E180000000600008001000F60000071
:100360000018000000068007800100007E000000E9
:1003700018C03F03060000800100007EE401001861
:10038000000000060000F8810700E00100001800EE
:100390004000FEFFFFFF17030101268BACB396550B
:1003A0002119A1C5114E5415E5814483A10812E815
:1003B000FABF4FD4C943D1144D154D59174DC380C1
:1003C000EA19E533CBE7964BB56B0001C800808096
:1003D000010102020101880101010101A0002000C8
:1003E000600040002000200010175E1ABC34BC34AE
:1003F000BC34BC34080304030202030202020202FA
:10040000070402050303010000600000001800005B
:100410000006000080010000600000FE1B000700D5
:1004200006000080090000600C000018FCC00106F6
:10043000E01F80010000600000F8180000000600C6
:1004400000C001000060F8FFFF1F0000000E000068
:100450008001000060000000F8FFFF1F0600008020
:100460000100007000000018000000FEFFFFFF1EEA
:100470000101040E85A8A02B41AB43D238B8E84D4A
:100480001066641B0741F08423094270A41355557C
:1004900075655B5755F5854BA368FA4693A5697A50
:1004A000669BA6D7372AD4C8C109ACE9AAD8002CC4
:1004B0000180800101020201018182820108018024
:1004C0000040006000C00000018000BC345E1ABC27
:1004D0003401100D17BC34020304090603020202A2
:1004E0000303020304030608050100006000000086
:1004F00018000000060800F0010240E0FFE31018B9
:1005000000000406000087010040E00F6010182082
:1005100000FF0708008001020060E0700018200062
:10052000E007080080FF0F40600080111800000401
:1005300006000287018040603E2010180008FF0777
:10054000F00380018003600020801F0008003EFC53
:10055000FF81210C00028C2502A0A4CA579CB73849
:10056000D8844210C4412040A0682A2E9CA7697BF1
:1005700034DE344F23CCF43C94352F5CD775D63918
:1005800080E47946559665D98647AE15F13DF090E1
:10059000952F834E86BA0ECF23194EF8A8CF9CF321
:1005A000643EEFC0022C0180800101020201018241
:1005B00082820101018000400060008000400060F4
:1005C00000BC34BC34BC34BC34BC34BC3403030382
:1005D00003030302020202020205050505050501E7
:1005E00000006000000018000000FE0000FC210078
:1005F0000061F8007818020010FE0000FC210000E5
:1006000061087C4018020010FE0000FC210000611F
:1006100078007C18020010FE0000FC210000610838
:10062000784018020010FE0000FC21000061F80173
:100630007C180000007E0000F801000060007800D7
:1006400018000000FEFFFFFF170C0104769FA0D8E2
:100650006E09B96D3B8618B42312E471446D9AE9B2
:100660001AB4A331CD7B44EDB872D48D4BD1D57D76
:10067000456DD86120F3C38487CF16122F3C78488C
:10068000FCF26124F3CB8497CF105BA1AF65AF0779
:100690003F0E78012C01808001010202010101015D
:1006A00012010188600020004000400080008001AD
:1006B000BC345E1ABC34BC34BC34021803050203DB
:1006C00003080202020202030504030505060100F5
:1006D0000060000000F803000007000080010CFC2F
:1006E0006000000018000080C700028001007860F0
:1006F0000080611870102006000488018000E40763
:1007000020001B000C470600439001F00162E04707
:10071000801C0660184600E08111001060C20F04C2
:100720009E00000226008080010040200000100F83
:10073000000004E0FFFF3F2C090202368FAA495453
:100740008811498C810844118481E054358E63A05E
:10075000EA3B0F65E1486299E64A68AAA84C1B3655
:10076000CA36ADB344F83F2F243900C4337CD34597
:10077000517465394156B515F981EB7A1738452C16
:10078000E429DEF5214DDEE3CE4A319631196712B8
:10079000BC12B94EC0002C0180800101020201018F
:1007A000141414010208A0012001A00160006000DF
:1007B0008001141A141A141ABC34BC340218080824
:1007C00008030408030303020203070707050207DF
:1007D000010200608000001820000006C8038001AC
:1007E0000260F8810008182000020608BE80C103DC
:1007F000E06080000818201F0206088080FF03E0E8
:100800007180000818E0FF0306000080C10300F8B3
:100810000100001800000006000080010000FCFF3D
:1008200000001800000006000080FF01E0630000E7
:1008300008F81F0002020080F9350F0001350F464D
:100840006DFB96CEF7272250982689C27888328F82
:100850008309144619E681A2691A6641EC7625A936
:10086000725E9826CBE2F8F0C1917C651E4C340D87
:10087000C571DC972DCD73DD170E4591E4992E4D92
:1008800093E519BE719B6B3AE6896B137C28448310
:100890002116BB02865B0CE72064C37C88454D7241
:1008A000A14E028D050D5500022C010080010102B0
:1008B000020101010201020201600060002000202B
:1008C0000080008000BC34BC345E1A5E1ABC34BCAC
:1008D00034040405050303020202020202020204B8
:1008E000040505010000600000001800000006C0BB
:1008F0000F80F100C0630000001800000006000037
:100900008001000060808707180000001E0000E0E2
:100910000100006000780018000000060FC083018D
:10092000000060F0003C180000000600008001009C
:1009300000601E00E019000C00E681079E00C00068
:100940000000300000000C00FCFFFFFF340C04022C
:10095000731EC442B06022044EB3685C17860168FF
:100960009C278A0220CA330CE3B0EE3C0F234A14C2
:1009700085A1888A2489A2880A84ADAB8A340F04B1
:100980004130A42B0B42F0751F41D8962D8D66DAAD
:1009900016BDB16CDB566E2181E7594A5898D1617A
:1009A00012F7C7992FA5E264C697B8CD76B6F08541
:1009B000EFA2118D6CA0D9648CD005ADF4012C018F
:1009C0008080010102020101111111021101600078
:1009D000E000A000200060008000BC34011D011D6B
:1009E0005E1A011D011D020909050909020303021E
:1009F0000303030606040606010000600000001859
:100A0000000000FE0100FE01000060000000180070
:100A10000000060000800100006000FF0318003F96
:100A200000060003800100006000000018000000C4
:100A3000FEFFFFFF0100006000000018000000063C
:100A4000000080010000602204029A088180264292
:100A500020A0891008682204021A000000FCFFFF91
:100A6000FF1B0300010E85AEEBB4EB9E1E9BA2089C
:100A700084218882288C2B8B02C8B42D8B8252163D
:100A80008621A8721E882228922681D0F465274DDF
:100A9000D06130EFC7879AE740009600808001015F
:100AA0000202010102141401020820002001A00129
:100AB000600060008001BC34141A141ABC34BC34C9
:100AC00002180406060304060203030202030307D6
:100AD0000705020700000000000000000000000001
:100AE00000000000000080FFFF9C030000000000E9
:100AF00000000000000000000000000000000000F6
:100B000000000000C06BFD9C07000000000000001A
:100B100000000000000000000000000000000000D5
:100B200000000000000000000000FCCFCFF9000032
:100B3000000000000000000000000000001800029B
:100B4000060583645BFFFFFFFFFFFF19084290C4A7
:100B5000691C47920492A6ABAB0A230CC4B16C2C5F
:100B60008D25497294E73BCF130157D6D44FD25FFE
:100B7000A58DD103A4FD6C1D022C01808001010410
:100B8000040101010202028804200040006000A06C
:100B90000060004000011D011D071609140814081B
:100BA00014090909090808030303030303070707D6
:100BB0000707070000000000000000000000000020
:100BC0000000000000000000000000000000000025
:100BD0000000000000000000000000000000000015
:100BE0000000000000000000000000000000000005
:100BF00000000000000000000000000000000000F5
:100C000000000000000000000000000000000000E4
:100C10000000000000000000000000003E000C008A
:100C200073DEFEA411392965A2545858168601882E
:100C3000641188822896268A0290B02C8B4218CAAA
:100C40003C0F434192651A66A1AA641D4799EA7652
:100C5000ADCB7AE0B6B20C6CA126CDD37CE132D01C
:100C6000F4B53142D4D53D6D5BD715561988E2787D
:100C700056579666399667920CE67D12752EB860C7
:100C800088E649EC94444957143AAEFA64670196F1
:100C9000008080010102020101010102040404201C
:100CA0000020006000A0012001A001BC345E1ABC3D
:100CB00034141A141A141A0205040808080202024D
:100CC000030303030402060606010000600000009F
:100CD0001800000006000080010000600000F01B0A
:100CE0000000000600008001003F600000001800C6
:100CF000000006F003800100006000000018FFFF04
:100D0000FF07000080010000E00100001800000063
:100D100006000080010000E0FF000018000000064F
:100D20000000800100E07F000008100000020400C5
:100D3000800005020000350F4E02475299B7EE5B66
:100D4000E1787E278BE5E21154A9009001808001B3
:100D5000010202010180800001800020004000604B
:100D600000A00060004000220031082240BC342274
:100D70000022100D0C0D030D0C0000000200000AF3
:100D80000A0A050A0A010000600000001800F03F8E
:100D9000768087881F1801608001001C1080000683
:100DA0000220824100886090F5FFFF0700000606E0
:100DB00000800102006003010018808808062000FE
:100DC000E0010800603802001880FF3F0630008014
:100DD0000102006043000018080000FE01048001C9
:100DE00004406000000018000000FEFFFFFF240A1E
:100DF00001061A48956217B60F96266E90661B84F8
:100E00004218882A9324E1205996E64A1487204CF8
:100E10001B14C7B66DBB4B0340F0548541D1B69D42
:100E200091765E97C5D5A86ADA2F3894A92C6344C9
:100E300037EF9510EE135E10C2958B5B75B8C21438
:100E40003191666D085D4ABDAC022C0180800101C4
:100E500002020101080101120102E0016000C0006C
:100E600080008000E00008100F180C1C0F180716F7
:100E70000518060B0B0B0B0B030303030303080BF3
:100E80000B0B0B0B010000600000001800000006B7
:100E90000000801F0000E03F0000F87F0000FEFF20
:100EA00003FC0100006000000018000000060000C4
:100EB000800100006000000018000000FEE018FF44
:100EC0000100006000000018000000060000800122
:100ED00000006004000018010000C6FFFF8F010041
:100EE000007000000018000000FEFFFFFF28010254
:100EF000001687A42305E3005CE4D508441184812F
:100F0000D8422108622082310C6320F63D944912B8
:100F1000CEB42D2B7B28CCB04D35134651F4952BF8
:100F20004C505515CF9565B986679B6739C73827EB
:100F3000CF6768015E0180800101020201018080AB
:100F400000808000200040006000A00060004000A1
:100F50002200320822102218140422100D0D0C0C4D
:100F60000D0D0000000000000A0A0A0A0A0A00002B
:100F7000000000000000000000000002200000004F
:100F800000220000008000000000000100000000BE
:100F900000C2010300000000030000001040000038
:100FA0000000000000000000000000788001000048
:100FB0000000012000000100000000000000600DA2
:100FC00000000000000840100000000006180000AB
:100FD000000000000000011C1A000663DAFB18D2B2
:100FE000392965A25478B62191658222892348DA8D
:100FF0000CA3A98BB2EEFC3C918C5F485294AD13CC
:101000006D5878261B8762DA1BDE3DECA3194E7300
:101010002D67B592B5A6124EB6B31D8C632D682D03
:10102000D0BE24424A31998D57C2B295695BA5372B
:10103000A52FAD6464CB5DBB588739AD642D72318B
:10104000A9295A94002C01808001010202010100AB
:1010500001010488042000A0006000E0012002A03B
:101060000123400E1807111416141613170C090942
:101070000606060003030303030A0B0B0808080116
:101080000000600000001800000006000080010061
:101090000060E0FF00180000000600008001000072
:1010A00060000000180000000600FF8701000060DB
:1010B00000000018000000FEFFFFFF01020060803A
:1010C000000018200000060800800F02006080FC6D
:1010D000FF1F2822220608008001FEFFE7118888F2
:1010E00018000000FEFFFFFF1C0500010CC5336760
:1010F0000988DF59D6F540D4360DC380C270A5E902
:101100008A669AA6E90AC2D7D274BD0F55DDF79D4B
:10111000EF70E0585E9FA9EAFA7844F572C73E4244
:101120002C98D83180025E01000001010202010109
:1011300002010001020460008000600060004001C4
:101140000001BC34131B2200BC34021B0316040B29
:101150000C030B08020300020303020B0A050B0732
:101160000100006000000018008007E600388301DD
:101170000C826100C0401800103006000698018003
:10118000316C00200018060C000E0001E007600C16
:10119000E0011C60F8C00F003EC007800FE073E064
:1011A00007F800F8013C00FE000FF83FC003E01F05
:1011B000F000F8073800FE011E80FF0007FF7FC027
:1011C000E3FF3FF8FFFFFFFFFF1A070101669BAA3D
:1011D0003F75C160412136188822894358E87A9CBE
:1011E000285264B9AEECC30CD44732D4B72E49545C
:1011F0005DF37D5F77E5EB818CA452D14AA8A664AC
:10120000A6DBE214B5616CD2C0012C018080010123
:101210000202010184000001010180014000600020
:10122000C000A000A000141922082210020B141BF9
:10123000141B060D0C090909030000030303090A26
:101240000A0A0606010000600000001800000006FF
:1012500000F0830100FF6300E0FF1900FCFF0600BF
:101260000FB801E000780018001E0006000780306B
:10127000C601000070C01F001EFC0FC286FF079C45
:10128000F1FF83613CE0009803600066001880195C
:10129000000460C61801980140004600188031081B
:1012A000036018700018000600FEFFFFFF2906000B
:1012B000023E91A0E6AE5E16ACD29890A62A0AA293
:1012C000B0AE280E23C0F23793447176569F8792B2
:1012D000A6ABAB0A4312C5316C631AC730CD3B5E77
:1012E000D2BA0E23E2F1C651451346D1D4E697296E
:1012F000AEF8756B5426AD7616B6D6B75AC00090C8
:10130000010000010102020101121112111112402B
:101310000020006000400080004000BC34BC34BCB1
:1013200034BC34BC34BC34020202020202020202A7
:101330000202020303030303030000000000A80AE3
:101340000000AA020080AA7F00A0021000A8FB05EE
:10135000000A000180A25F00A008100028FA07F828
:10136000FB020002800080FEAF0FA0000AC2EFFF68
:10137000BE10000028F4FEFF0A21408042F817A0AA
:101380003000002C0000000000F80000000000E029
:1013900007C00F0000000000000000000000C0FFB8
:1013A000FF0F4F0A00027EA1A70A81A09C190A41E3
:1013B000A92E4C93648162699AA6B9B26D9A07917D
:1013C000E28AA2E8CA368425496260992689BAB2BF
:1013D000ADA90B52D8B72E0B92E8BB2F0BD2C4D2BB
:1013E00034CD4356D6B5ED8B68DB370DD348F33D8E
:1013F0000F53D8F73E0F93E8FB3F0FD3C704455177
:10140000645D1C47511CB536D1F48D0762D8F6AD2A
:10141000AF6CD936DA90C5424C549CA9408485EF14
:10142000273A631CF18D807BD740025E01000001EA
:1014300001020201010208080002012000400180AF
:10144000016000E000A0005E1A11151014130009DD
:101450001B020C0506060C0B0B020303000303041E
:1014600008080A0B0B00000000000000000000004C
:1014700000001000000000001E000004030000C077
:10148000000000108000000000000000007F00004D
:10149000000F0200C0030000F000000038E00F0061
:1014A0000CF00000033C0000000F0000C001000031
:1014B000300000000C0000000000E00100003000DF
:1014C00000040C08000002000000000000001806E4
:1014D0000500D577521120981461236D9086421033
:1014E000A43138479E89AA6C9BA709CA7490AC6E38
:1014F000238AE338EE4392E95CB81CA45E710F7B4B
:10150000021C4A5929535C28A76B633853053001E4
:101510002C018080010102020101010208020288FF
:1015200060002000A000C000A0008001BC345E1A52
:1015300001190B1B0B10010F0405080B0906020211
:10154000030303030204060B0A0901000060000004
:10155000401808000006E2078081000060200000BB
:101560001808003F3F02008081000060207E0018C4
:101570000800003E0200808100F07320000018087F
:10158000000006E2078081000060200000180800CB
:101590003FC703008081000060607E0018080000E3
:1015A000060200808100F06320000018000000FEA9
:1015B000FFFFFF2206000D09846752D19056D59F88
:1015C00081B0B02C8AA3B8F43615A5599C6CA30938
:1015D000D25AB631CC23AAEC3B2EA3ECFBBF4F5C16
:1015E0005916C55274AD4BD2B5C54763738B08D934
:1015F000CE4B9C990D54204E716D62E328635411BB
:10160000AF39735B1AD638CC886A2DB7B5F4118020
:101610000100008080010102020101880101010135
:1016200001A0002000600040002000200010175E94
:101630001ABC34BC34BC34BC3406030403020203B9
:101640000202020202070402050303000000000078
:10165000000000000000000000000000000000008A
:101660000000E0FF0100FB7F0320FF3F0184FF87B4
:1016700000E1FF2140F4BF0820FC0F0108FF4300F8
:10168000C4FF0800E69F0100FA170000FD020040B9
:10169000BF000088470000C0000000300000000CC0
:1016A000000000030000E0010000FC00000000005A
:1016B000000000000000000069605FFFFFFFFFFF07
:1016C000FFFF13132626262613131326260C262681
:1016D000261313262626260C261313260C2626262A
:1016E0002613132626260C26261313132626262613
:1016F00013131313131313131313131313131313BA
:10170000131313132626262613131326260C262618
:10171000261313262626260C261313260C262626E9
:101720002613132626260C262613131326262626D2
:1017300013131313131313131313131D1D1D1D1D47
:101740001D1313132626262613131326260C2626CE
:10175000261313262626260C261313260C262626A9
:101760002613132626260C26261313132626262692
:1017700013131313131313131313131D1D1D1D1D07
:101780001D1D13132626262613131326260C262684
:10179000261313262626260C261313260C26262669
:1017A0002613132626260C26261313132626262652
:1017B000131313131313131313131D1D1D1D1D1DBD
:1017C0001D1D13132626262613131326260C262644
:1017D000261313262626260C261313260C26262629
:1017E0002613132626260C26261313132626262612
:1017F000131313131313131313131D1D1D1D1D1D7D
:101800001D1313131313131313131313131313139E
:101810001313131313131313131313131313131398
:101820001313131313131313131313131313131388
:101830001313131313131313131313131313131378
:101840001313131313131313131313131313131368
:101850001313131313131313131313131313131358
:101860001313131313131313131313131313131348
:1018700013131313131313131313131D1D1D1D1D06
:101880001D1313131313131313131313131313131E
:101890001313131313131313131313131313131318
:1018A0001313131313131313131313131313131308
:1018B00013131313131313131313131D1D1D1D1DC6
:1018C0001D1D1313131313131313131313131313D4
:1018D00013131313131313131313131313131313D8
:1018E00013131313131313131313131313131313C8
:1018F000131313131313131313131D1D1D1D1D1D7C
:101900001D1D131313131313131313131313131393
:101910001313131313131313131313131313131397
:101920001313131313131313131313131313131387
:10193000131313131313131313131D1D1D1D1D1D3B
:101940001D1314141C14141D14141D1414141C142D
:10195000141C141414141D14141414141414141C2E
:10196000141D14141C1414141414141D141414141D
:101970001D14141C14141C1414141414141414140E
:10198000141C1D1D1D1D1D1D1D1D141414141C14BF
:10199000141C141414141D14141414141414141CEE
:1019A000141D14141C1414141414141D14141414DD
:1019B0001D14141C14141C141414141414141414CE
:1019C000141C260C1C14141D0C26260C14141C1498
:1019D0000C26260C14141D140C26260C1414141C8E
:1019E0000C262626262626262626260C1414141413
:1019F0000C26260C14141C140C26260C1414141477
:101A00000C26260C1D1D1D1D0C26260C14141C1442
:101A10000C26260C14141D140C26260C1414141C4D
:101A20000C262626262626262626260C14141414D2
:101A30000C26260C14141C140C26260C1414141436
:101A40000C262626262626262626260C14141C14AA
:101A50000C26260C14141D140C26260C1414141C0D
:101A60000C262626262626262626260C1414141492
:101A70000C26260C14141C140C26260C14141414F6
:101A80000C261D1D1D1D1D1D1D1D141414141C14BC
:101A9000141C141D141414141D14131313131313F2
:101AA0001313131313131313131313131313131306
:101AB00013131313131313131313131313131313F6
:101AC0001313260C1D1D1D1D0C26260C14141C148E
:101AD0000C26260C141414140C26260C13131313A2
:101AE0000C262626262626262626260C1313131316
:101AF0000C26260C131313130C26260C1313131386
:101B00000C26260C131313130C26260C1313131375
:101B10000C26260C131313130C26260C1313131365
:101B20000C262626262626262626260C13131313D5
:101B30000C26260C131313130C26260C1313131345
:101B40000C26260C131313130C26260C1313131335
:101B50000C262626262626262626260C13131313A5
:101B60000C26260C131313130C2613131313131321
:101B700013131313131313131313131D1D1D1D1D03
:101B80001D13260C131313130C26260C13131313F7
:101B90000C262626262626262626260C1313131365
:101BA0000C26260C131313130C26131313131313E1
:101BB00013131313131313131313131D1D1D1D1DC3
:101BC0001D1D260C131313130C26260C13131313AD
:101BD0000C262626262626262626260C1313131325
:101BE0000C26260C131313130C26131313131313A1
:101BF000131313131313131313131D1D1D1D1D1D79
:101C00001D1D260C131313130C26260C131313136C
:101C10000C262626262626262626260C13131313E4
:101C20000C26260C131313130C2613131313131360
:101C3000131313131313131313131D1D1D1D1D1D38
:101C40001D132626262626262626260C13131313B6
:101C50000C26260C131313130C26260C1313131324
:101C60000C262626262626262626260C1313131394
:101C70000C26260C131313130C26260C1313131304
:101C80000C262626262626262626260C1313131374
:101C90000C26260C131313130C26260C13131313E4
:101CA0000C26260C131313130C26131313131313E0
:101CB00013131313131313131313131D1D1D1D1DC2
:101CC0001D132626262626262626260C1313131336
:101CD0000C26260C131313130C26260C13131313A4
:101CE0000C26260C131313130C26131313131313A0
:101CF00013131313131313131313131D1D1D1D1D82
:101D00001D1D2626262626262626260C13131313EB
:101D10000C26260C131313130C26260C1313131363
:101D20000C26260C131313130C261313131313135F
:101D3000131313131313131313131D1D1D1D1D1D37
:101D40001D1D2626262626262626260C13131313AB
:101D50000C26260C131313130C26260C1313131323
:101D60000C26260C131313130C261313131313131F
:101D7000131313131313131313131D1D1D1D1D1DF7
:101D80001D1313131D1D1D131313131D14141D1DDB
:101D900013131D1D1313141D1D131D1D1313131DCC
:101DA0001D131D1D1313131D1D13141D1D13131DB2
:101DB000141313141D1D1D141313131314141413CF
:101DC00013131313131D1D13131313131D1D1D13B1
:101DD00013131313141D1D1313131313131D1D13AA
:101DE00013131313131D1D1313131313131D1D139B
:101DF0001313131D1D1D1D1D1D1313141414141472
:101E00001413131D1D1D1D1D13131D1D1414141D4E
:101E10001D13141413131D1D1D1313131D1D1D1D40
:101E20001413131D1D1D1D1413131D1D1D14141338
:101E300013131D1D1D1D1D1D1D1314141414141426
:101E40001413131D1D1D1D1D1D13131414141D1D0E
:101E500014131313131D1D14131313131D1D1D1D14
:101E6000131313131414141D1D131D1D1313131D0D
:101E70001D13141D1D1D1D1D1413131414141414EF
:101E800013131313131D1D1D131313131D1D1D1DDC
:101E90001313131D1D141D1D13131D1D14131D1DC0
:101EA00013131D1D1D1D1D1D1D13141414141D1DA4
:101EB0001413131313131D1D1313131313131414DB
:101EC00013131D1D1D1D1D1D13131D1D141414148E
:101ED00013131D1D1D1D1D1D131314141414141D87
:101EE0001D1313131313131D1D131D1D1313131D86
:101EF0001D13141D1D1D1D1D14131314141414146F
:101F0000131313131D1D1D1D1313131D1D14141462
:101F100013131D1D1413131313131D1D1D1D1D1D40
:101F200013131D1D1414141D1D131D1D1313131D38
:101F30001D13141D1D1D1D1D14131314141414142E
:101F400013131D1D1D1D1D1D1D131D1D1414141DFA
:101F50001D13141413131D1D14131313131D1D141B
:101F6000131313131D1D1413131313131D1D131318
:101F7000131313131D1D131313131313141413131B
:101F80001313131D1D1D1D1313131D1D1414141DD8
:101F900013131D1D1D13131D1313141D1D1D1D14BF
:101FA00013131D14141D1D1D1D131D131314141DB7
:101FB0001D13141D1D1D1D1D1413131414141414AE
:101FC0001313131D1D1D1D1D13131D1D1414141D8E
:101FD0001D131D1D1313131D1D13141D1D1D1D1D6C
:101FE0001D1313141414141D1D13131313131D1D8B
:101FF0001413131D1D1D1D14131313141414141383
:1020000013131D1D1D1D1D1D13131D1D1414141D43
:102010001D131D1D1313131D1D131D1D1313131D40
:102020001D131D1D1D1D1D1D14131D1D1414141421
:1020300013131D1D1313131313131414131313135A
:102040001313131313131313131313131313131360
:102050001313131313131313131313131313131350
:1020600013131313131F13131313131F132F1F1300
:102070001F131F2F3F3F3F3F3F2F3F3F3F3F3F3FFC
:102080003F3F13131326261313131313260C262670
:102090001313131326260C2613131313260C2626AC
:1020A0001313131326260C261313131313262613A8
:1020B00013131313131313131313131313131313F0
:1020C000131313131326261313131313260C262688
:1020D0001313131326260C2613131313260C26266C
:1020E0001313131326260C26131313131326261368
:1020F00013131313131313131313131D1D1D1D1D7E
:102100001D1313131326261313131313260C26263D
:102110001313131326260C2613131313260C26262B
:102120001313131326260C26131313131326261327
:1021300013131313131313131313131D1D1D1D1D3D
:102140001D1D13131326261313131313260C2626F3
:102150001313131326260C2613131313260C2626EB
:102160001313131326260C261313131313262613E7
:10217000131313131313131313131D1D1D1D1D1DF3
:102180001D1D13131326261313131313260C2626B3
:102190001313131326260C2613131313260C2626AB
:1021A0001313131326260C261313131313262613A7
:1021B000131313131313131313131D1D1D1D1D1DB3
:1021C0001D131313131313131313131313131313D5
:1021D00013131313131313131313131313131313CF
:1021E00013131313131313131313131313131313BF
:1021F00013131313131313131313131313131313AF
:10220000131313131313131313131313131313139E
:10221000131313131313131313131313131313138E
:10222000131313131313131313131313131313137E
:1022300013131313131313131313131D1D1D1D1D3C
:102240001D13131313131313131313131313131354
:10225000131313131313131313131313131313134E
:10226000131313131313131313131313131313133E
:1022700013131313131313131313131D1D1D1D1DFC
:102280001D1D13131313131313131313131313130A
:10229000131313131313131313131313131313130E
:1022A00013131313131313131313131313131313FE
:1022B000131313131313131313131D1D1D1D1D1DB2
:1022C0001D1D1313131313131313131313131313CA
:1022D00013131313131313131313131313131313CE
:1022E00013131313131313131313131313131313BE
:1022F000131313131313131313131D1D1D1D1D1D72
:102300001D1314141C14141D14141D1414141C1463
:10231000141C141414141D14141414141414141C64
:10232000141D14141C1414141414141D1414141453
:102330001D14141C14141C14141414141414141444
:10234000141C1D1D1D1D1D1D1D1D141414141C14F5
:10235000141C141414141D14141414141414141C24
:10236000141D14141C1414141414141D1414141413
:102370001D14141C14141C14141414141414141404
:10238000141C260C1C14141D0C26260C14141C14CE
:102390000C26260C14141D140C26260C1414141CC4
:1023A0000C262626262626262626260C1414141449
:1023B0000C26260C14141C140C26260C14141414AD
:1023C0000C26260C1D1D1D1D0C26260C14141C1479
:1023D0000C26260C14141D140C26260C1414141C84
:1023E0000C262626262626262626260C1414141409
:1023F0000C26260C14141C140C26260C141414146D
:102400000C262626262626262626260C14141C14E0
:102410000C26260C14141D140C26260C1414141C43
:102420000C262626262626262626260C14141414C8
:102430000C26260C14141C140C26260C141414142C
:102440000C261D1D1D1D1D1D1D1D141414141C14F2
:10245000141C141D141414141D1413131313131328
:10246000131313131313131313131313131313133C
:10247000131313131313131313131313131313132C
:102480001313260C1D1D1D1D0C26260C14141C14C4
:102490000C26260C141414140C26260C13131313D8
:1024A0000C262626262626262626260C131313134C
:1024B0000C26260C131313130C26260C13131313BC
:1024C0000C26260C131313130C26260C13131313AC
:1024D0000C26260C131313130C26260C131313139C
:1024E0000C262626262626262626260C131313130C
:1024F0000C26260C131313130C26260C131313137C
:102500000C26260C131313130C26260C131313136B
:102510000C262626262626262626260C13131313DB
:102520000C26260C131313130C2613131313131357
:1025300013131313131313131313131D1D1D1D1D39
:102540001D13260C131313130C26260C131313132D
:102550000C262626262626262626260C131313139B
:102560000C26260C131313130C2613131313131317
:1025700013131313131313131313131D1D1D1D1DF9
:102580001D1D260C131313130C26260C13131313E3
:102590000C262626262626262626260C131313135B
:1025A0000C26260C131313130C26131313131313D7
:1025B000131313131313131313131D1D1D1D1D1DAF
:1025C0001D1D260C131313130C26260C13131313A3
:1025D0000C262626262626262626260C131313131B
:1025E0000C26260C131313130C2613131313131397
:1025F000131313131313131313131D1D1D1D1D1D6F
:102600001D132626262626262626260C13131313EC
:102610000C26260C131313130C26260C131313135A
:102620000C262626262626262626260C13131313CA
:102630000C26260C131313130C26260C131313133A
:102640000C262626262626262626260C13131313AA
:102650000C26260C131313130C26260C131313131A
:102660000C26260C131313130C2613131313131316
:1026700013131313131313131313131D1D1D1D1DF8
:102680001D132626262626262626260C131313136C
:102690000C26260C131313130C26260C13131313DA
:1026A0000C26260C131313130C26131313131313D6
:1026B00013131313131313131313131D1D1D1D1DB8
:1026C0001D1D2626262626262626260C1313131322
:1026D0000C26260C131313130C26260C131313139A
:1026E0000C26260C131313130C2613131313131396
:1026F000131313131313131313131D1D1D1D1D1D6E
:102700001D1D2626262626262626260C13131313E1
:102710000C26260C131313130C26260C1313131359
:102720000C26260C131313130C2613131313131355
:10273000131313131313131313131D1D1D1D1D1D2D
:102740001D1313131D1D1D131313131D14141D1D11
:1027500013131D1D1313141D1D131D1D1313131D02
:102760001D131D1D1313131D1D13141D1D13131DE8
:10277000141313141D1D1D14131313131414141305
:1027800013131313131D1D13131313131D1D1D13E7
:1027900013131313141D1D1313131313131D1D13E0
:1027A00013131313131D1D1313131313131D1D13D1
:1027B0001313131D1D1D1D1D1D13131414141414A8
:1027C0001413131D1D1D1D1D13131D1D1414141D85
:1027D0001D13141413131D1D1D1313131D1D1D1D77
:1027E0001413131D1D1D1D1413131D1D1D1414136F
:1027F00013131D1D1D1D1D1D1D131414141414145D
:102800001413131D1D1D1D1D1D13131414141D1D44
:1028100014131313131D1D14131313131D1D1D1D4A
:10282000131313131414141D1D131D1D1313131D43
:102830001D13141D1D1D1D1D141313141414141425
:1028400013131313131D1D1D131313131D1D1D1D12
:102850001313131D1D141D1D13131D1D14131D1DF6
:1028600013131D1D1D1D1D1D1D13141414141D1DDA
:102870001413131313131D1D131313131313141411
:1028800013131D1D1D1D1D1D13131D1D14141414C4
:1028900013131D1D1D1D1D1D131314141414141DBD
:1028A0001D1313131313131D1D131D1D1313131DBC
:1028B0001D13141D1D1D1D1D1413131414141414A5
:1028C000131313131D1D1D1D1313131D1D14141499
:1028D00013131D1D1413131313131D1D1D1D1D1D77
:1028E00013131D1D1414141D1D131D1D1313131D6F
:1028F0001D13141D1D1D1D1D141313141414141465
:1029000013131D1D1D1D1D1D1D131D1D1414141D30
:102910001D13141413131D1D14131313131D1D1451
:10292000131313131D1D1413131313131D1D13134E
:10293000131313131D1D1313131313131414131351
:102940001313131D1D1D1D1313131D1D1414141D0E
:1029500013131D1D1D13131D1313141D1D1D1D14F5
:1029600013131D14141D1D1D1D131D131314141DED
:102970001D13141D1D1D1D1D1413131414141414E4
:102980001313131D1D1D1D1D13131D1D1414141DC4
:102990001D131D1D1313131D1D13141D1D1D1D1DA2
:1029A0001D1313141414141D1D13131313131D1DC1
:1029B0001413131D1D1D1D141313131414141413B9
:1029C00013131D1D1D1D1D1D13131D1D1414141D7A
:1029D0001D131D1D1313131D1D131D1D1313131D77
:1029E0001D131D1D1D1D1D1D14131D1D1414141458
:1029F00013131D1D13131313131314141313131391
:102A00001313131313131313131313131313131396
:102A10001313131313131313131313131313131386
:102A2000131313131F13131F131313132F1F133F0A
:102A30002F1F131F3F3F2F3F3F2F3F3F3F3F3F3F42
:102A40003F3F1313132626131313131313262613B2
:102A500013131313132626131313131313262613FA
:102A600013131313132626131313131313262613EA
:102A70001313131313131313131313131313131326
:102A800013131313132626131313131313262613CA
:102A900013131313132626131313131313262613BA
:102AA00013131313132626131313131313262613AA
:102AB00013131313131313131313131D1D1D1D1DB4
:102AC0001D13131313262613131313131326261380
:102AD000131313131326261313131313132626137A
:102AE000131313131326261313131313132626136A
:102AF00013131313131313131313131D1D1D1D1D74
:102B00001D1D131313262613131313131326261335
:102B10001313131313262613131313131326261339
:102B20001313131313262613131313131326261329
:102B3000131313131313131313131D1D1D1D1D1D29
:102B40001D1D1313132626131313131313262613F5
:102B500013131313132626131313131313262613F9
:102B600013131313132626131313131313262613E9
:102B7000131313131313131313131D1D1D1D1D1DE9
:102B80001D1313131313131313131313131313130B
:102B90001313131313131313131313131313131305
:102BA00013131313131313131313131313131313F5
:102BB00013131313131313131313131313131313E5
:102BC00013131313131313131313131313131313D5
:102BD00013131313131313131313131313131313C5
:102BE00013131313131313131313131313131313B5
:102BF00013131313131313131313131D1D1D1D1D73
:102C00001D1313131313131313131313131313138A
:102C10001313131313131313131313131313131384
:102C20001313131313131313131313131313131374
:102C300013131313131313131313131D1D1D1D1D32
:102C40001D1D131313131313131313131313131340
:102C50001313131313131313131313131313131344
:102C60001313131313131313131313131313131334
:102C7000131313131313131313131D1D1D1D1D1DE8
:102C80001D1D131313131313131313131313131300
:102C90001313131313131313131313131313131304
:102CA00013131313131313131313131313131313F4
:102CB000131313131313131313131D1D1D1D1D1DA8
:102CC0001D1314141C14141D14141D1414141C149A
:102CD000141C141414141D14141414141414141C9B
:102CE000141D14141C1414141414141D141414148A
:102CF0001D14141C14141C1414141414141414147B
:102D0000141C1D1D1D1D1D1D1D1D141414141C142B
:102D1000141C141414141D14141414141414141C5A
:102D2000141D14141C1414141414141D1414141449
:102D30001D14141C14141C1414141414141414143A
:102D4000141C260C1C14141D0C26260C14141C1404
:102D50000C26260C14141D140C26260C1414141CFA
:102D60000C262626262626262626260C141414147F
:102D70000C26260C14141C140C26260C14141414E3
:102D80000C26260C1D1D1D1D0C26260C14141C14AF
:102D90000C26260C14141D140C26260C1414141CBA
:102DA0000C262626262626262626260C141414143F
:102DB0000C26260C14141C140C26260C14141414A3
:102DC0000C262626262626262626260C14141C1417
:102DD0000C26260C14141D140C26260C1414141C7A
:102DE0000C262626262626262626260C14141414FF
:102DF0000C26260C14141C140C26260C1414141463
:102E00000C261D1D1D1D1D1D1D1D141414141C1428
:102E1000141C141D141414141D141313131313135E
:102E20001313131313131313131313131313131372
:102E30001313131313131313131313131313131362
:102E40001313260C1D1D1D1D0C26260C14141C14FA
:102E50000C26260C141414140C26260C131313130E
:102E60000C262626262626262626260C1313131382
:102E70000C26260C131313130C26260C13131313F2
:102E80000C26260C131313130C26260C13131313E2
:102E90000C26260C131313130C26260C13131313D2
:102EA0000C262626262626262626260C1313131342
:102EB0000C26260C131313130C26260C13131313B2
:102EC0000C26260C131313130C26260C13131313A2
:102ED0000C262626262626262626260C1313131312
:102EE0000C26260C131313130C261313131313138E
:102EF00013131313131313131313131D1D1D1D1D70
:102F00001D13260C131313130C26260C1313131363
:102F10000C262626262626262626260C13131313D1
:102F20000C26260C131313130C261313131313134D
:102F300013131313131313131313131D1D1D1D1D2F
:102F40001D1D260C131313130C26260C1313131319
:102F50000C262626262626262626260C1313131391
:102F60000C26260C131313130C261313131313130D
:102F7000131313131313131313131D1D1D1D1D1DE5
:102F80001D1D260C131313130C26260C13131313D9
:102F90000C262626262626262626260C1313131351
:102FA0000C26260C131313130C26131313131313CD
:102FB000131313131313131313131D1D1D1D1D1DA5
:102FC0001D132626262626262626260C1313131323
:102FD0000C26260C131313130C26260C1313131391
:102FE0000C262626262626262626260C1313131301
:102FF0000C26260C131313130C26260C1313131371
:103000000C262626262626262626260C13131313E0
:103010000C26260C131313130C26260C1313131350
:103020000C26260C131313130C261313131313134C
:1030300013131313131313131313131D1D1D1D1D2E
:103040001D132626262626262626260C13131313A2
:103050000C26260C131313130C26260C1313131310
:103060000C26260C131313130C261313131313130C
:1030700013131313131313131313131D1D1D1D1DEE
:103080001D1D2626262626262626260C1313131358
:103090000C26260C131313130C26260C13131313D0
:1030A0000C26260C131313130C26131313131313CC
:1030B000131313131313131313131D1D1D1D1D1DA4
:1030C0001D1D2626262626262626260C1313131318
:1030D0000C26260C131313130C26260C1313131390
:1030E0000C26260C131313130C261313131313138C
:1030F000131313131313131313131D1D1D1D1D1D64
:103100001D1313131D1D1D131313131D14141D1D47
:1031100013131D1D1313141D1D131D1D1313131D38
:103120001D131D1D1313131D1D13141D1D13131D1E
:10313000141313141D1D1D1413131313141414133B
:1031400013131313131D1D13131313131D1D1D131D
:1031500013131313141D1D1313131313131D1D1316
:1031600013131313131D1D1313131313131D1D1307
:103170001313131D1D1D1D1D1D13131414141414DE
:103180001413131D1D1D1D1D13131D1D1414141DBB
:103190001D13141413131D1D1D1313131D1D1D1DAD
:1031A0001413131D1D1D1D1413131D1D1D141413A5
:1031B00013131D1D1D1D1D1D1D1314141414141493
:1031C0001413131D1D1D1D1D1D13131414141D1D7B
:1031D00014131313131D1D14131313131D1D1D1D81
:1031E000131313131414141D1D131D1D1313131D7A
:1031F0001D13141D1D1D1D1D14131314141414145C
:1032000013131313131D1D1D131313131D1D1D1D48
:103210001313131D1D141D1D13131D1D14131D1D2C
:1032200013131D1D1D1D1D1D1D13141414141D1D10
:103230001413131313131D1D131313131313141447
:1032400013131D1D1D1D1D1D13131D1D14141414FA
:1032500013131D1D1D1D1D1D131314141414141DF3
:103260001D1313131313131D1D131D1D1313131DF2
:103270001D13141D1D1D1D1D1413131414141414DB
:10328000131313131D1D1D1D1313131D1D141414CF
:1032900013131D1D1413131313131D1D1D1D1D1DAD
:1032A00013131D1D1414141D1D131D1D1313131DA5
:1032B0001D13141D1D1D1D1D14131314141414149B
:1032C00013131D1D1D1D1D1D1D131D1D1414141D67
:1032D0001D13141413131D1D14131313131D1D1488
:1032E000131313131D1D1413131313131D1D131385
:1032F000131313131D1D1313131313131414131388
:103300001313131D1D1D1D1313131D1D1414141D44
:1033100013131D1D1D13131D1313141D1D1D1D142B
:1033200013131D14141D1D1D1D131D131314141D23
:103330001D13141D1D1D1D1D14131314141414141A
:103340001313131D1D1D1D1D13131D1D1414141DFA
:103350001D131D1D1313131D1D13141D1D1D1D1DD8
:103360001D1313141414141D1D13131313131D1DF7
:103370001413131D1D1D1D141313131414141413EF
:1033800013131D1D1D1D1D1D13131D1D1414141DB0
:103390001D131D1D1313131D1D131D1D1313131DAD
:1033A0001D131D1D1D1D1D1D14131D1D141414148E
:1033B00013131D1D131313131313141413131313C7
:1033C00013131313131313131313131313131313CD
:1033D00013131313131313131313131313131313BD
:1033E0001313131313131F1313131313131F2F1F6D
:1033F00013131F2F3F3F3F3F1F2F3F3F3F3F3F3F95
:103400003F3F00002626262600000026260C262602
:10341000260000262626260C260000260C26262618
:103420002600002626260C26260000002626262614
:10343000000000000000000000000000000000008C
:10344000000000002626262600000026260C262640
:10345000260000262626260C260000260C262626D8
:103460002600002626260C262600000026262626D4
:103470000000000000000000000000A4A4A4A4A418
:10348000A40000002626262600000026260C26265C
:10349000260000262626260C260000260C26262698
:1034A0002600002626260C26260000002626262694
:1034B0000000000000000000000000A4A4A4A4A4D8
:1034C000A4A400002626262600000026260C262678
:1034D000260000262626260C260000260C26262658
:1034E0002600002626260C26260000002626262654
:1034F00000000000000000000000A4A4A4A4A4A4F4
:10350000A4A400002626262600000026260C262637
:10351000260000262626260C260000260C26262617
:103520002600002626260C26260000002626262613
:1035300000000000000000000000A4A4A4A4A4A4B3
:10354000A4000000000000000000000000000000D7
:10355000000000000000000000000000000000006B
:10356000000000000000000000000000000000005B
:10357000000000000000000000000000000000004B
:10358000000000000000000000000000000000003B
:10359000000000000000000000000000000000002B
:1035A000000000000000000000000000000000001B
:1035B0000000000000000000000000A4A4A4A4A4D7
:1035C000A400000000000000000000000000000057
:1035D00000000000000000000000000000000000EB
:1035E00000000000000000000000000000000000DB
:1035F0000000000000000000000000A4A4A4A4A497
:10360000A4A4000000000000000000000000000072
:1036100000000000000000000000000000000000AA
:10362000000000000000000000000000000000009A
:1036300000000000000000000000A4A4A4A4A4A4B2
:10364000A4A4000000000000000000000000000032
:10365000000000000000000000000000000000006A
:10366000000000000000000000000000000000005A
:1036700000000000000000000000A4A4A4A4A4A472
:10368000A4005252525252A45252A4525252525276
:10369000525252525252A4525252525252525252B8
:1036A00052A4525252525252525252A45252525256
:1036B000A45252525252525252525252A452525246
:1036C0005252A4A4A4A4A4A4A4A45252525252524A
:1036D000525252525252A452525252525252525278
:1036E00052A4525252525252525252A45252525216
:1036F000A45252525252525252525252A452525206
:103700005252F6A4525252A4A4F6F6A45252525265
:10371000A4F6F6A45252A452A4F6F6A4525252525F
:10372000A4F6F6F6F6F6F6F6F6F6F6A4525252526D
:10373000A4F6F6A452525252A4F6F6A4A45252523F
:10374000A4F6F6A4A4A4A4A4A4F6F6A45252525239
:10375000A4F6F6A45252A452A4F6F6A4525252521F
:10376000A4F6F6F6F6F6F6F6F6F6F6A4525252522D
:10377000A4F6F6A452525252A4F6F6A4A4525252FF
:10378000A4F6F6F6F6F6F6F6F6F6F6A4525252520D
:10379000A4F6F6A45252A452A4F6F6A452525252DF
:1037A000A4F6F6F6F6F6F6F6F6F6F6A452525252ED
:1037B000A4F6F6A452525252A4F6F6A4A4525252BF
:1037C000A4F6A4A4A4A4A4A4A4A452525252525253
:1037D00052525252525252A4525200000000000063
:1037E00000000000000000000000000000000000D9
:1037F00000000000000000000000000000000000C9
:103800000000F6A4A4A4A4A4A4F6F6A45252525212
:10381000A4F6F6A4525252A4A4F6F6A400000000A6
:10382000A4F6F6F6F6F6F6F6F6F6F6A400000000B4
:10383000A4F6F6A400000000A4F6F6A40000000020
:10384000A4F6F6A400000000A4F6F6A40000000010
:10385000A4F6F6A400000000A4F6F6A40000000000
:10386000A4F6F6F6F6F6F6F6F6F6F6A40000000074
:10387000A4F6F6A400000000A4F6F6A400000000E0
:10388000A4F6F6A400000000A4F6F6A400000000D0
:10389000A4F6F6F6F6F6F6F6F6F6F6A40000000044
:1038A000A4F6F6A400000000A4F60000000000004A
:1038B0000000000000000000000000A4A4A4A4A4D4
:1038C000A400F6A400000000A4F6F6A40000000086
:1038D000A4F6F6F6F6F6F6F6F6F6F6A40000000004
:1038E000A4F6F6A400000000A4F60000000000000A
:1038F0000000000000000000000000A4A4A4A4A494
:10390000A4A4F6A400000000A4F6F6A400000000A1
:10391000A4F6F6F6F6F6F6F6F6F6F6A400000000C3
:10392000A4F6F6A400000000A4F6000000000000C9
:1039300000000000000000000000A4A4A4A4A4A4AF
:10394000A4A4F6A400000000A4F6F6A40000000061
:10395000A4F6F6F6F6F6F6F6F6F6F6A40000000083
:10396000A4F6F6A400000000A4F600000000000089
:1039700000000000000000000000A4A4A4A4A4A46F
:10398000A400F6F6F6F6F6F6F6F6F6A40000000049
:10399000A4F6F6A400000000A4F6F6A400000000BF
:1039A000A4F6F6F6F6F6F6F6F6F6F6A40000000033
:1039B000A4F6F6A400000000A4F6F6A4000000009F
:1039C000A4F6F6F6F6F6F6F6F6F6F6A40000000013
:1039D000A4F6F6A400000000A4F6F6A4000000007F
:1039E000A4F6F6A400000000A4F600000000000009
:1039F0000000000000000000000000A4A4A4A4A493
:103A0000A400F6F6F6F6F6F6F6F6F6A400000000C8
:103A1000A4F6F6A400000000A4F6F6A4000000003E
:103A2000A4F6F6A400000000A4F6000000000000C8
:103A30000000000000000000000000A4A4A4A4A452
:103A4000A4A4F6F6F6F6F6F6F6F6F6A400000000E4
:103A5000A4F6F6A400000000A4F6F6A400000000FE
:103A6000A4F6F6A400000000A4F600000000000088
:103A700000000000000000000000A4A4A4A4A4A46E
:103A8000A4A4F6F6F6F6F6F6F6F6F6A400000000A4
:103A9000A4F6F6A400000000A4F6F6A400000000BE
:103AA000A4F6F6A400000000A4F600000000000048
:103AB00000000000000000000000A4A4A4A4A4A42E
:103AC000A4000000A4A4A400000000A45252A4A4D6
:103AD0000000A4A4000052A4A400A4A4000000A418
:103AE000A400A4A4000000A4A40052A4A40000A464
:103AF00052000052A4A4A4520000000052525200EE
:103B00000000000000A4A40000000000A4A4A40081
:103B10000000000052A4A4000000000000A4A400C3
:103B20000000000000A4A4000000000000A4A40005
:103B3000000000A4A4A4A4A4A40000525252525213
:103B4000520000A4A4A4A4A40000A4A4525252A40D
:103B5000A40052520000A4A4A4000000A4A4A4A4A1
:103B6000520000A4A4A4A4520000A4A4A452520091
:103B70000000A4A4A4A4A4A4A400525252525252DD
:103B8000520000A4A4A4A4A4A40000525252A4A4CD
:103B90005200000000A4A45200000000A4A4A4A4A9
:103BA00000000000525252A4A400A4A4000000A4EB
:103BB000A40052A4A4A4A4A45200005252525252EF
:103BC0000000000000A4A4A400000000A4A4A4A479
:103BD000000000A4A452A4A40000A4A45200A4A421
:103BE0000000A4A4A4A4A4A4A40052525252A4A4C9
:103BF000520000000000A4A4000000000000525287
:103C00000000A4A4A4A4A4A40000A4A4525252524C
:103C10000000A4A4A4A4A4A400005252525252A48E
:103C2000A4000000000000A4A400A4A4000000A4BC
:103C3000A40052A4A4A4A4A452000052525252526E
:103C400000000000A4A4A4A4000000A4A4525252A6
:103C50000000A4A4520000000000A4A4A4A4A4A4F2
:103C60000000A4A4525252A4A400A4A4000000A4E2
:103C7000A40052A4A4A4A4A452000052525252522E
:103C80000000A4A4A4A4A4A4A400A4A4525252A4D6
:103C9000A40052520000A4A45200000000A4A452A8
:103CA00000000000A4A4520000000000A4A4000032
:103CB00000000000A4A40000000000005252000018
:103CC000000000A4A4A4A4000000A4A4525252A482
:103CD0000000A4A4A40000A4000052A4A4A4A45220
:103CE0000000A45252A4A4A4A400A400005252A410
:103CF000A40052A4A4A4A4A45200005252525252AE
:103D0000000000A4A4A4A4A40000A4A4525252A49D
:103D1000A400A4A4000000A4A40052A4A4A4A4A4E9
:103D2000A4000052525252A4A40000000000A4A417
:103D3000520000A4A4A4A452000000525252520007
:103D40000000A4A4A4A4A4A40000A4A4525252A4B9
:103D5000A400A4A4000000A4A400A4A4000000A443
:103D6000A400A4A4A4A4A4A45200A4A452525252F5
:103D70000000A4A400000000000052520000000057
:103D80000000000000000000000000000000000033
:103D90000000000000000000000000000000000023
:103DA00000000000001F00000000001F002F1F0087
:103DB0001F001F2F3F3F3F3F3F2F3F3F3F3F3F3FB2
:103DC0003F3F00000026260000000000260C2626AB
:103DD0000000000026260C2600000000260C2626E7
:103DE0000000000026260C26000000000026260009
:103DF00000000000000000000000000000000000C3
:103E0000000000000026260000000000260C2626E8
:103E10000000000026260C2600000000260C2626A6
:103E20000000000026260C260000000000262600C8
:103E30000000000000000000000000A4A4A4A4A44E
:103E4000A40000000026260000000000260C262604
:103E50000000000026260C2600000000260C262666
:103E60000000000026260C26000000000026260088
:103E70000000000000000000000000A4A4A4A4A40E
:103E8000A4A400000026260000000000260C262620
:103E90000000000026260C2600000000260C262626
:103EA0000000000026260C26000000000026260048
:103EB00000000000000000000000A4A4A4A4A4A42A
:103EC000A4A400000026260000000000260C2626E0
:103ED0000000000026260C2600000000260C2626E6
:103EE0000000000026260C26000000000026260008
:103EF00000000000000000000000A4A4A4A4A4A4EA
:103F0000A40000000000000000000000000000000D
:103F100000000000000000000000000000000000A1
:103F20000000000000000000000000000000000091
:103F30000000000000000000000000000000000081
:103F40000000000000000000000000000000000071
:103F50000000000000000000000000000000000061
:103F60000000000000000000000000000000000051
:103F70000000000000000000000000A4A4A4A4A40D
:103F8000A40000000000000000000000000000008D
:103F90000000000000000000000000000000000021
:103FA0000000000000000000000000000000000011
:103FB0000000000000000000000000A4A4A4A4A4CD
:103FC000A4A40000000000000000000000000000A9
:103FD00000000000000000000000000000000000E1
:103FE00000000000000000000000000000000000D1
:103FF00000000000000000000000A4A4A4A4A4A4E9
:10400000A4A4000000000000000000000000000068
:1040100000000000000000000000000000000000A0
:104020000000000000000000000000000000000090
:1040300000000000000000000000A4A4A4A4A4A4A8
:10404000A4005252525252A45252A45252525252AC
:10405000525252525252A4525252525252525252EE
:1040600052A4525252525252525252A4525252528C
:10407000A45252525252525252525252A45252527C
:104080005252A4A4A4A4A4A4A4A452525252525280
:10409000525252525252A4525252525252525252AE
:1040A00052A4525252525252525252A4525252524C
:1040B000A45252525252525252525252A45252523C
:1040C0005252F6A4525252A4A4F6F6A4525252529C
:1040D000A4F6F6A45252A452A4F6F6A45252525296
:1040E000A4F6F6F6F6F6F6F6F6F6F6A452525252A4
:1040F000A4F6F6A452525252A4F6F6A4A452525276
:10410000A4F6F6A4A4A4A4A4A4F6F6A4525252526F
:10411000A4F6F6A45252A452A4F6F6A45252525255
:10412000A4F6F6F6F6F6F6F6F6F6F6A45252525263
:10413000A4F6F6A452525252A4F6F6A4A452525235
:10414000A4F6F6F6F6F6F6F6F6F6F6A45252525243
:10415000A4F6F6A45252A452A4F6F6A45252525215
:10416000A4F6F6F6F6F6F6F6F6F6F6A45252525223
:10417000A4F6F6A452525252A4F6F6A4A4525252F5
:10418000A4F6A4A4A4A4A4A4A4A452525252525289
:1041900052525252525252A4525200000000000099
:1041A000000000000000000000000000000000000F
:1041B00000000000000000000000000000000000FF
:1041C0000000F6A4A4A4A4A4A4F6F6A45252525249
:1041D000A4F6F6A4525252A4A4F6F6A400000000DD
:1041E000A4F6F6F6F6F6F6F6F6F6F6A400000000EB
:1041F000A4F6F6A400000000A4F6F6A40000000057
:10420000A4F6F6A400000000A4F6F6A40000000046
:10421000A4F6F6A400000000A4F6F6A40000000036
:10422000A4F6F6F6F6F6F6F6F6F6F6A400000000AA
:10423000A4F6F6A400000000A4F6F6A40000000016
:10424000A4F6F6A400000000A4F6F6A40000000006
:10425000A4F6F6F6F6F6F6F6F6F6F6A4000000007A
:10426000A4F6F6A400000000A4F600000000000080
:104270000000000000000000000000A4A4A4A4A40A
:10428000A400F6A400000000A4F6F6A400000000BC
:10429000A4F6F6F6F6F6F6F6F6F6F6A4000000003A
:1042A000A4F6F6A400000000A4F600000000000040
:1042B0000000000000000000000000A4A4A4A4A4CA
:1042C000A4A4F6A400000000A4F6F6A400000000D8
:1042D000A4F6F6F6F6F6F6F6F6F6F6A400000000FA
:1042E000A4F6F6A400000000A4F600000000000000
:1042F00000000000000000000000A4A4A4A4A4A4E6
:10430000A4A4F6A400000000A4F6F6A40000000097
:10431000A4F6F6F6F6F6F6F6F6F6F6A400000000B9
:10432000A4F6F6A400000000A4F6000000000000BF
:1043300000000000000000000000A4A4A4A4A4A4A5
:10434000A400F6F6F6F6F6F6F6F6F6A4000000007F
:10435000A4F6F6A400000000A4F6F6A400000000F5
:10436000A4F6F6F6F6F6F6F6F6F6F6A40000000069
:10437000A4F6F6A400000000A4F6F6A400000000D5
:10438000A4F6F6F6F6F6F6F6F6F6F6A40000000049
:10439000A4F6F6A400000000A4F6F6A400000000B5
:1043A000A4F6F6A400000000A4F60000000000003F
:1043B0000000000000000000000000A4A4A4A4A4C9
:1043C000A400F6F6F6F6F6F6F6F6F6A400000000FF
:1043D000A4F6F6A400000000A4F6F6A40000000075
:1043E000A4F6F6A400000000A4F6000000000000FF
:1043F0000000000000000000000000A4A4A4A4A489
:10440000A4A4F6F6F6F6F6F6F6F6F6A4000000001A
:10441000A4F6F6A400000000A4F6F6A40000000034
:10442000A4F6F6A400000000A4F6000000000000BE
:1044300000000000000000000000A4A4A4A4A4A4A4
:10444000A4A4F6F6F6F6F6F6F6F6F6A400000000DA
:10445000A4F6F6A400000000A4F6F6A400000000F4
:10446000A4F6F6A400000000A4F60000000000007E
:1044700000000000000000000000A4A4A4A4A4A464
:10448000A4000000A4A4A400000000A45252A4A40C
:104490000000A4A4000052A4A400A4A4000000A44E
:1044A000A400A4A4000000A4A40052A4A40000A49A
:1044B00052000052A4A4A452000000005252520024
:1044C0000000000000A4A40000000000A4A4A400B8
:1044D0000000000052A4A4000000000000A4A400FA
:1044E0000000000000A4A4000000000000A4A4003C
:1044F000000000A4A4A4A4A4A4000052525252524A
:10450000520000A4A4A4A4A40000A4A4525252A443
:10451000A40052520000A4A4A4000000A4A4A4A4D7
:10452000520000A4A4A4A4520000A4A4A4525200C7
:104530000000A4A4A4A4A4A4A40052525252525213
:10454000520000A4A4A4A4A4A40000525252A4A403
:104550005200000000A4A45200000000A4A4A4A4DF
:1045600000000000525252A4A400A4A4000000A421
:10457000A40052A4A4A4A4A4520000525252525225
:104580000000000000A4A4A400000000A4A4A4A4AF
:10459000000000A4A452A4A40000A4A45200A4A457
:1045A0000000A4A4A4A4A4A4A40052525252A4A4FF
:1045B000520000000000A4A40000000000005252BD
:1045C0000000A4A4A4A4A4A40000A4A45252525283
:1045D0000000A4A4A4A4A4A400005252525252A4C5
:1045E000A4000000000000A4A400A4A4000000A4F3
:1045F000A40052A4A4A4A4A45200005252525252A5
:1046000000000000A4A4A4A4000000A4A4525252DC
:104610000000A4A4520000000000A4A4A4A4A4A428
:104620000000A4A4525252A4A400A4A4000000A418
:10463000A40052A4A4A4A4A4520000525252525264
:104640000000A4A4A4A4A4A4A400A4A4525252A40C
:10465000A40052520000A4A45200000000A4A452DE
:1046600000000000A4A4520000000000A4A4000068
:1046700000000000A4A4000000000000525200004E
:10468000000000A4A4A4A4000000A4A4525252A4B8
:104690000000A4A4A40000A4000052A4A4A4A45256
:1046A0000000A45252A4A4A4A400A400005252A446
:1046B000A40052A4A4A4A4A45200005252525252E4
:1046C000000000A4A4A4A4A40000A4A4525252A4D4
:1046D000A400A4A4000000A4A40052A4A4A4A4A420
:1046E000A4000052525252A4A40000000000A4A44E
:1046F000520000A4A4A4A45200000052525252003E
:104700000000A4A4A4A4A4A40000A4A4525252A4EF
:10471000A400A4A4000000A4A400A4A4000000A479
:10472000A400A4A4A4A4A4A45200A4A4525252522B
:104730000000A4A40000000000005252000000008D
:104740000000000000000000000000000000000069
:104750000000000000000000000000000000000059
:10476000000000001F00001F000000002F1F003F7E
:104770002F1F001F3F3F2F3F3F2F3F3F3F3F3F3FF8
:104780003F3F000000262600000000000026260013
:104790000000000000262600000000000026260081
:1047A0000000000000262600000000000026260071
:1047B00000000000000000000000000000000000F9
:1047C0000000000000262600000000000026260051
:1047D0000000000000262600000000000026260041
:1047E0000000000000262600000000000026260031
:1047F0000000000000000000000000A4A4A4A4A485
:10480000A40000000026260000000000002626006C
:104810000000000000262600000000000026260000
:1048200000000000002626000000000000262600F0
:104830000000000000000000000000A4A4A4A4A444
:10484000A4A4000000262600000000000026260088
:1048500000000000002626000000000000262600C0
:1048600000000000002626000000000000262600B0
:1048700000000000000000000000A4A4A4A4A4A460
:10488000A4A4000000262600000000000026260048
:104890000000000000262600000000000026260080
:1048A0000000000000262600000000000026260070
:1048B00000000000000000000000A4A4A4A4A4A420
:1048C000A400000000000000000000000000000044
:1048D00000000000000000000000000000000000D8
:1048E00000000000000000000000000000000000C8
:1048F00000000000000000000000000000000000B8
:1049000000000000000000000000000000000000A7
:104910000000000000000000000000000000000097
:104920000000000000000000000000000000000087
:104930000000000000000000000000A4A4A4A4A443
:10494000A4000000000000000000000000000000C3
:104950000000000000000000000000000000000057
:104960000000000000000000000000000000000047
:104970000000000000000000000000A4A4A4A4A403
:10498000A4A40000000000000000000000000000DF
:104990000000000000000000000000000000000017
:1049A0000000000000000000000000000000000007
:1049B00000000000000000000000A4A4A4A4A4A41F
:1049C000A4A400000000000000000000000000009F
:1049D00000000000000000000000000000000000D7
:1049E00000000000000000000000000000000000C7
:1049F00000000000000000000000A4A4A4A4A4A4DF
:104A0000A4005252525252A45252A45252525252E2
:104A1000525252525252A452525252525252525224
:104A200052A4525252525252525252A452525252C2
:104A3000A45252525252525252525252A4525252B2
:104A40005252A4A4A4A4A4A4A4A4525252525252B6
:104A5000525252525252A4525252525252525252E4
:104A600052A4525252525252525252A45252525282
:104A7000A45252525252525252525252A452525272
:104A80005252F6A4525252A4A4F6F6A452525252D2
:104A9000A4F6F6A45252A452A4F6F6A452525252CC
:104AA000A4F6F6F6F6F6F6F6F6F6F6A452525252DA
:104AB000A4F6F6A452525252A4F6F6A4A4525252AC
:104AC000A4F6F6A4A4A4A4A4A4F6F6A452525252A6
:104AD000A4F6F6A45252A452A4F6F6A4525252528C
:104AE000A4F6F6F6F6F6F6F6F6F6F6A4525252529A
:104AF000A4F6F6A452525252A4F6F6A4A45252526C
:104B0000A4F6F6F6F6F6F6F6F6F6F6A45252525279
:104B1000A4F6F6A45252A452A4F6F6A4525252524B
:104B2000A4F6F6F6F6F6F6F6F6F6F6A45252525259
:104B3000A4F6F6A452525252A4F6F6A4A45252522B
:104B4000A4F6A4A4A4A4A4A4A4A4525252525252BF
:104B500052525252525252A45252000000000000CF
:104B60000000000000000000000000000000000045
:104B70000000000000000000000000000000000035
:104B80000000F6A4A4A4A4A4A4F6F6A4525252527F
:104B9000A4F6F6A4525252A4A4F6F6A40000000013
:104BA000A4F6F6F6F6F6F6F6F6F6F6A40000000021
:104BB000A4F6F6A400000000A4F6F6A4000000008D
:104BC000A4F6F6A400000000A4F6F6A4000000007D
:104BD000A4F6F6A400000000A4F6F6A4000000006D
:104BE000A4F6F6F6F6F6F6F6F6F6F6A400000000E1
:104BF000A4F6F6A400000000A4F6F6A4000000004D
:104C0000A4F6F6A400000000A4F6F6A4000000003C
:104C1000A4F6F6F6F6F6F6F6F6F6F6A400000000B0
:104C2000A4F6F6A400000000A4F6000000000000B6
:104C30000000000000000000000000A4A4A4A4A440
:104C4000A400F6A400000000A4F6F6A400000000F2
:104C5000A4F6F6F6F6F6F6F6F6F6F6A40000000070
:104C6000A4F6F6A400000000A4F600000000000076
:104C70000000000000000000000000A4A4A4A4A400
:104C8000A4A4F6A400000000A4F6F6A4000000000E
:104C9000A4F6F6F6F6F6F6F6F6F6F6A40000000030
:104CA000A4F6F6A400000000A4F600000000000036
:104CB00000000000000000000000A4A4A4A4A4A41C
:104CC000A4A4F6A400000000A4F6F6A400000000CE
:104CD000A4F6F6F6F6F6F6F6F6F6F6A400000000F0
:104CE000A4F6F6A400000000A4F6000000000000F6
:104CF00000000000000000000000A4A4A4A4A4A4DC
:104D0000A400F6F6F6F6F6F6F6F6F6A400000000B5
:104D1000A4F6F6A400000000A4F6F6A4000000002B
:104D2000A4F6F6F6F6F6F6F6F6F6F6A4000000009F
:104D3000A4F6F6A400000000A4F6F6A4000000000B
:104D4000A4F6F6F6F6F6F6F6F6F6F6A4000000007F
:104D5000A4F6F6A400000000A4F6F6A400000000EB
:104D6000A4F6F6A400000000A4F600000000000075
:104D70000000000000000000000000A4A4A4A4A4FF
:104D8000A400F6F6F6F6F6F6F6F6F6A40000000035
:104D9000A4F6F6A400000000A4F6F6A400000000AB
:104DA000A4F6F6A400000000A4F600000000000035
:104DB0000000000000000000000000A4A4A4A4A4BF
:104DC000A4A4F6F6F6F6F6F6F6F6F6A40000000051
:104DD000A4F6F6A400000000A4F6F6A4000000006B
:104DE000A4F6F6A400000000A4F6000000000000F5
:104DF00000000000000000000000A4A4A4A4A4A4DB
:104E0000A4A4F6F6F6F6F6F6F6F6F6A40000000010
:104E1000A4F6F6A400000000A4F6F6A4000000002A
:104E2000A4F6F6A400000000A4F6000000000000B4
:104E300000000000000000000000A4A4A4A4A4A49A
:104E4000A4000000A4A4A400000000A45252A4A442
:104E50000000A4A4000052A4A400A4A4000000A484
:104E6000A400A4A4000000A4A40052A4A40000A4D0
:104E700052000052A4A4A45200000000525252005A
:104E80000000000000A4A40000000000A4A4A400EE
:104E90000000000052A4A4000000000000A4A40030
:104EA0000000000000A4A4000000000000A4A40072
:104EB000000000A4A4A4A4A4A40000525252525280
:104EC000520000A4A4A4A4A40000A4A4525252A47A
:104ED000A40052520000A4A4A4000000A4A4A4A40E
:104EE000520000A4A4A4A4520000A4A4A4525200FE
:104EF0000000A4A4A4A4A4A4A4005252525252524A
:104F0000520000A4A4A4A4A4A40000525252A4A439
:104F10005200000000A4A45200000000A4A4A4A415
:104F200000000000525252A4A400A4A4000000A457
:104F3000A40052A4A4A4A4A452000052525252525B
:104F40000000000000A4A4A400000000A4A4A4A4E5
:104F5000000000A4A452A4A40000A4A45200A4A48D
:104F60000000A4A4A4A4A4A4A40052525252A4A435
:104F7000520000000000A4A40000000000005252F3
:104F80000000A4A4A4A4A4A40000A4A452525252B9
:104F90000000A4A4A4A4A4A400005252525252A4FB
:104FA000A4000000000000A4A400A4A4000000A429
:104FB000A40052A4A4A4A4A45200005252525252DB
:104FC00000000000A4A4A4A4000000A4A452525213
:104FD0000000A4A4520000000000A4A4A4A4A4A45F
:104FE0000000A4A4525252A4A400A4A4000000A44F
:104FF000A40052A4A4A4A4A452000052525252529B
:105000000000A4A4A4A4A4A4A400A4A4525252A442
:10501000A40052520000A4A45200000000A4A45214
:1050200000000000A4A4520000000000A4A400009E
:1050300000000000A4A40000000000005252000084
:10504000000000A4A4A4A4000000A4A4525252A4EE
:105050000000A4A4A40000A4000052A4A4A4A4528C
:105060000000A45252A4A4A4A400A400005252A47C
:10507000A40052A4A4A4A4A452000052525252521A
:10508000000000A4A4A4A4A40000A4A4525252A40A
:10509000A400A4A4000000A4A40052A4A4A4A4A456
:1050A000A4000052525252A4A40000000000A4A484
:1050B000520000A4A4A4A452000000525252520074
:1050C0000000A4A4A4A4A4A40000A4A4525252A426
:1050D000A400A4A4000000A4A400A4A4000000A4B0
:1050E000A400A4A4A4A4A4A45200A4A45252525262
:1050F0000000A4A4000000000000525200000000C4
:10510000000000000000000000000000000000009F
:10511000000000000000000000000000000000008F
:105120000000000000001F0000000000001F2F1FF3
:1051300000001F2F3F3F3F3F1F2F3F3F3F3F3F3F5D
:105140003F3F51512626262651515126260C262610
:10515000265151262626260C265151260C26262677
:105160002651512626260C26265151512626262622
:10517000515151515151515151515151515151511F
:10518000515151512626262651515126260C2626AC
:10519000265151262626260C265151260C26262637
:1051A0002651512626260C262651515126262626E2
:1051B0007151517151715151715151292929292927
:1051C000295151512626262651515126260C262694
:1051D000265151262626260C265151260C262626F7
:1051E0002651512626260C26265151712626262682
:1051F00071515151715171715151512929292929E7
:10520000292951512626262651515126260C26267B
:10521000265151262626260C265151260C262626B6
:105220002651512626260C26265171512626262641
:1052300051515171517151517151292929292929EE
:10524000292951512626262651515126260C26263B
:10525000265151262626260C265151260C26262676
:105260002651512626260C26265151712626262601
:1052700051515151715171715151292929292929AE
:105280002951515151515151515151515151515136
:1052900051515151515151515151515151515151FE
:1052A00051515151515151515151515151515151EE
:1052B00051515151515151515151515151515151DE
:1052C00051515151515151515151515151515151CE
:1052D00051515151515151515151515151515151BE
:1052E000515151515151515151515151515171518E
:1052F00071515171517151517151512929292929E6
:1053000029515151515151515151515151515151B5
:10531000515151515151515151515151515151517D
:10532000515151515151515151515171515151514D
:1053300071515151715171715151512929292929A5
:10534000292951515151515151515151515151519D
:10535000515151515151515151515151515151513D
:1053600051515151517151515151715151517151CD
:1053700051515171517151517151292929292929AD
:10538000292951515151515151515151515151515D
:1053900051515151515151515151515151515151FD
:1053A000515151515151517151515171515171518D
:1053B000515151517151717151512929292929296D
:1053C00029515C5C1C5C5C1D5C5C1D5C5C5C1C5C59
:1053D0005C1C5C5C5C5C1D5C5C5C5C5C5C1C5C1C0C
:1053E0005C1D5C5C1C5C5C5C5C5C5C1D5C5C5C5CBB
:1053F0001D5C5C1C5C5C1C5C5C5C5C5C1D5C5C5CEB
:105400005C1C29292929292929295C71715C711DB4
:105410005C711D5C715C1C715C715C715C5C1D5C21
:105420005C5C5C5C5C1C5C1C5C1D5C5C1C5C5C5CBB
:105430005C5C5C1D5C5C5C5C1D5C5C1C5C5C1C5CAA
:105440005C5C26141C5C5C1D142626145C5C1C5CD5
:1054500014261D145C5C1D5C142626145C1C5C1C4C
:105460001426262626262626262626145C5C5C5C28
:10547000142626145C5C1C5C141D26141D5C5C5CEC
:10548000142626142929292914262614715C711D35
:1054900014261D14715C1C71142626145C5C1D5CA2
:1054A0001426262626262626262626141C5C5C5C28
:1054B000142626145C5C5C5C141D26145C5C1C5C6D
:1054C0001426262626262626262626145C5C1C5C08
:1054D00014261D145C5C1D5C142626145C1C5C1CCC
:1054E0001426262626262626262626145C5C5C5CA8
:1054F000142626145C5C1C5C141D26141D5C5C5C6C
:10550000142629292929292929295C71715C711DF1
:105510005C711D5C715C1C715C7151715151515118
:10552000515151515151515151515151515151516B
:10553000515151515151515151515151515151515B
:10554000515126142929292914262614715C711D0C
:1055500014261D14715C1C711426261451515151CE
:105560001426262626262626262626145151515153
:105570001426261451515151141D261451515151C4
:1055800014262614515151511426261451515151AB
:1055900014261D14515151511426261451515151A4
:1055A0001426262626262626262626145151515113
:1055B0001426261451515151141D26145151515184
:1055C000142626145151515114262614515151516B
:1055D00014261D26262626262626261451515151EC
:1055E00014262614515151511426515151517151C3
:1055F00071515171517151517151512929292929E3
:1056000029512614515151511426261451515151EA
:1056100014261D26262626262626261451515151AB
:105620001426261451515151142651715151515182
:1056300071515151715171715151512929292929A2
:1056400029292614515151511426261451515151D2
:1056500014261D262626262626262614515151516B
:105660001426261451715151142671515151715102
:1056700051515171517151517151292929292929AA
:105680002929261451515151142626145151515192
:1056900014261D262626262626262614515151512B
:1056A00014262614515151711426517151517151C2
:1056B000515151517151717151512929292929296A
:1056C00029512626262626262626261451515151B2
:1056D00014261D1451515151142626145151515163
:1056E00014262626262626262626261451515151D2
:1056F0001426261451515151141D26145151515143
:1057000014262626262626262626261451515151B1
:1057100014261D1451515151142626145151515122
:105720001426261451515151142651515151715181
:1057300071515171517151517151512929292929A1
:105740002951262626262626262626145151515131
:1057500014261D14515151511426261451515151E2
:105760001426261451515151142651715151515141
:105770007151515171517171515151292929292961
:105780002929262626262626262626145151515119
:1057900014261D14515151511426261451515151A2
:1057A00014262614515151511426715151517151E1
:1057B0005151517151715151715129292929292969
:1057C00029292626262626262626261451515151D9
:1057D00014261D1451515151142626145151515162
:1057E00014262614515151511426517151517151A1
:1057F0005151515171517171515129292929292929
:1058000029515151FFFFFF51515151FFA4A4FFFFF6
:105810005151FFFF5151A4FFFF51FFFF515151FF63
:10582000FF51FFFF515151FFFF51A4FFFF5151FFA5
:10583000A45151A4FFFFFFA451515151A4A4A4515C
:105840005151515151FFFF5151515151FFFFFF51E2
:1058500051515151A4FFFF515151515151FFFF512D
:105860005151515151FFFF515151515151FFFF5170
:10587000515151FFFFFFFFFFFF5151A4A4A4A4A465
:10588000A45151FFFFFFFFFF5151FFFFA4A4A4FF4C
:10589000FF51A4A45151FFFFFF515151FFFFFFFFE2
:1058A000A45151FFFFFFFFA45151FFFFFFA4A451DA
:1058B0005151FFFFFFFFFFFFFF51A4A4A4A4A4A424
:1058C000A45151FFFFFFFFFFFF5151A4A4A4FFFF0C
:1058D000A451515151FFFFA451515151FFFFFFFFFE
:1058E00051515151A4A4A4FFFF51FFFF515151FF49
:1058F000FF51A4FFFFFFFFFFA45151A4A4A4A4A43F
:105900005151515151FFFFFF51515151FFFFFFFFC5
:10591000515151FFFFA4FFFF5151FFFFA451FFFF61
:105920005151FFFFFFFFFFFFFF51A4A4A4A4FFFFFD
:10593000A45151515151FFFF515151515151A4A402
:105940005151FFFFFFFFFFFF5151FFFFA4A4A4A48B
:105950005151FFFFFFFFFFFF5151A4A4A4A4A4FFD6
:10596000FF515151515151FFFF51FFFF515151FF13
:10597000FF51A4FFFFFFFFFFA45151A4A4A4A4A4BE
:1059800051515151FFFFFFFF515151FFFFA4A4A4FA
:105990005151FFFFA45151515151FFFFFFFFFFFF34
:1059A0005151FFFFA4A4A4FFFF51FFFF515151FF2C
:1059B000FF51A4FFFFFFFFFFA45151A4A4A4A4A47E
:1059C0005151FFFFFFFFFFFFFF51FFFFA4A4A4FF02
:1059D000FF51A4A45151FFFFA451515151FFFFA405
:1059E00051515151FFFFA45151515151FFFF51519C
:1059F00051515151FFFF515151515151A4A4515195
:105A0000515151FFFFFFFF515151FFFFA4A4A4FFCB
:105A10005151FFFFFF5151FF5151A4FFFFFFFFA460
:105A20005151FFA4A4FFFFFFFF51FF5151A4A4FF58
:105A3000FF51A4FFFFFFFFFFA45151A4A4A4A4A4FD
:105A4000515151FFFFFFFFFF5151FFFFA4A4A4FFDD
:105A5000FF51FFFF515151FFFF51A4FFFFFFFFFF17
:105A6000FF5151A4A4A4A4FFFF5151515151FFFF74
:105A7000A45151FFFFFFFFA4515151A4A4A4A4516C
:105A80005151FFFFFFFFFFFF5151FFFFA4A4A4FFEF
:105A9000FF51FFFF515151FFFF51FFFF515151FF86
:105AA000FF51FFFFFFFFFFFFA451FFFFA4A4A4A429
:105AB0005151FFFF515151515151A4A451515151D4
:105AC00051515151515151515151515151515151C6
:105AD00051515151515151515151515151515151B6
